{
  "_format": "hh-sol-artifact-1",
  "contractName": "CattaLemur",
  "sourceName": "contracts/CattaLemur.sol",
  "abi": [
    {
      "inputs": [
        {
          "internalType": "string",
          "name": "uri",
          "type": "string"
        },
        {
          "internalType": "bytes32",
          "name": "merkleroot",
          "type": "bytes32"
        },
        {
          "internalType": "address",
          "name": "_proxyRegistryAddress",
          "type": "address"
        }
      ],
      "stateMutability": "nonpayable",
      "type": "constructor"
    },
    {
      "anonymous": false,
      "inputs": [
        {
          "indexed": true,
          "internalType": "address",
          "name": "owner",
          "type": "address"
        },
        {
          "indexed": true,
          "internalType": "address",
          "name": "approved",
          "type": "address"
        },
        {
          "indexed": true,
          "internalType": "uint256",
          "name": "tokenId",
          "type": "uint256"
        }
      ],
      "name": "Approval",
      "type": "event"
    },
    {
      "anonymous": false,
      "inputs": [
        {
          "indexed": true,
          "internalType": "address",
          "name": "owner",
          "type": "address"
        },
        {
          "indexed": true,
          "internalType": "address",
          "name": "operator",
          "type": "address"
        },
        {
          "indexed": false,
          "internalType": "bool",
          "name": "approved",
          "type": "bool"
        }
      ],
      "name": "ApprovalForAll",
      "type": "event"
    },
    {
      "anonymous": false,
      "inputs": [
        {
          "indexed": true,
          "internalType": "contract IERC20",
          "name": "token",
          "type": "address"
        },
        {
          "indexed": false,
          "internalType": "address",
          "name": "to",
          "type": "address"
        },
        {
          "indexed": false,
          "internalType": "uint256",
          "name": "amount",
          "type": "uint256"
        }
      ],
      "name": "ERC20PaymentReleased",
      "type": "event"
    },
    {
      "anonymous": false,
      "inputs": [
        {
          "indexed": true,
          "internalType": "address",
          "name": "previousOwner",
          "type": "address"
        },
        {
          "indexed": true,
          "internalType": "address",
          "name": "newOwner",
          "type": "address"
        }
      ],
      "name": "OwnershipTransferred",
      "type": "event"
    },
    {
      "anonymous": false,
      "inputs": [
        {
          "indexed": false,
          "internalType": "address",
          "name": "account",
          "type": "address"
        },
        {
          "indexed": false,
          "internalType": "uint256",
          "name": "shares",
          "type": "uint256"
        }
      ],
      "name": "PayeeAdded",
      "type": "event"
    },
    {
      "anonymous": false,
      "inputs": [
        {
          "indexed": false,
          "internalType": "address",
          "name": "from",
          "type": "address"
        },
        {
          "indexed": false,
          "internalType": "uint256",
          "name": "amount",
          "type": "uint256"
        }
      ],
      "name": "PaymentReceived",
      "type": "event"
    },
    {
      "anonymous": false,
      "inputs": [
        {
          "indexed": false,
          "internalType": "address",
          "name": "to",
          "type": "address"
        },
        {
          "indexed": false,
          "internalType": "uint256",
          "name": "amount",
          "type": "uint256"
        }
      ],
      "name": "PaymentReleased",
      "type": "event"
    },
    {
      "anonymous": false,
      "inputs": [
        {
          "indexed": true,
          "internalType": "address",
          "name": "from",
          "type": "address"
        },
        {
          "indexed": true,
          "internalType": "address",
          "name": "to",
          "type": "address"
        },
        {
          "indexed": true,
          "internalType": "uint256",
          "name": "tokenId",
          "type": "uint256"
        }
      ],
      "name": "Transfer",
      "type": "event"
    },
    {
      "inputs": [
        {
          "internalType": "address",
          "name": "",
          "type": "address"
        }
      ],
      "name": "_presaleClaimed",
      "outputs": [
        {
          "internalType": "uint256",
          "name": "",
          "type": "uint256"
        }
      ],
      "stateMutability": "view",
      "type": "function"
    },
    {
      "inputs": [
        {
          "internalType": "address",
          "name": "to",
          "type": "address"
        },
        {
          "internalType": "uint256",
          "name": "tokenId",
          "type": "uint256"
        }
      ],
      "name": "approve",
      "outputs": [],
      "stateMutability": "nonpayable",
      "type": "function"
    },
    {
      "inputs": [
        {
          "internalType": "address",
          "name": "owner",
          "type": "address"
        }
      ],
      "name": "balanceOf",
      "outputs": [
        {
          "internalType": "uint256",
          "name": "",
          "type": "uint256"
        }
      ],
      "stateMutability": "view",
      "type": "function"
    },
    {
      "inputs": [],
      "name": "baseExtension",
      "outputs": [
        {
          "internalType": "string",
          "name": "",
          "type": "string"
        }
      ],
      "stateMutability": "view",
      "type": "function"
    },
    {
      "inputs": [],
      "name": "baseURI",
      "outputs": [
        {
          "internalType": "string",
          "name": "",
          "type": "string"
        }
      ],
      "stateMutability": "view",
      "type": "function"
    },
    {
      "inputs": [
        {
          "internalType": "uint256",
          "name": "tokenId",
          "type": "uint256"
        }
      ],
      "name": "getApproved",
      "outputs": [
        {
          "internalType": "address",
          "name": "",
          "type": "address"
        }
      ],
      "stateMutability": "view",
      "type": "function"
    },
    {
      "inputs": [
        {
          "internalType": "address",
          "name": "owner",
          "type": "address"
        },
        {
          "internalType": "address",
          "name": "operator",
          "type": "address"
        }
      ],
      "name": "isApprovedForAll",
      "outputs": [
        {
          "internalType": "bool",
          "name": "",
          "type": "bool"
        }
      ],
      "stateMutability": "view",
      "type": "function"
    },
    {
      "inputs": [],
      "name": "maxSupply",
      "outputs": [
        {
          "internalType": "uint256",
          "name": "",
          "type": "uint256"
        }
      ],
      "stateMutability": "view",
      "type": "function"
    },
    {
      "inputs": [],
      "name": "name",
      "outputs": [
        {
          "internalType": "string",
          "name": "",
          "type": "string"
        }
      ],
      "stateMutability": "view",
      "type": "function"
    },
    {
      "inputs": [],
      "name": "notRevealedUri",
      "outputs": [
        {
          "internalType": "string",
          "name": "",
          "type": "string"
        }
      ],
      "stateMutability": "view",
      "type": "function"
    },
    {
      "inputs": [],
      "name": "owner",
      "outputs": [
        {
          "internalType": "address",
          "name": "",
          "type": "address"
        }
      ],
      "stateMutability": "view",
      "type": "function"
    },
    {
      "inputs": [
        {
          "internalType": "uint256",
          "name": "tokenId",
          "type": "uint256"
        }
      ],
      "name": "ownerOf",
      "outputs": [
        {
          "internalType": "address",
          "name": "",
          "type": "address"
        }
      ],
      "stateMutability": "view",
      "type": "function"
    },
    {
      "inputs": [],
      "name": "paused",
      "outputs": [
        {
          "internalType": "bool",
          "name": "",
          "type": "bool"
        }
      ],
      "stateMutability": "view",
      "type": "function"
    },
    {
      "inputs": [
        {
          "internalType": "uint256",
          "name": "index",
          "type": "uint256"
        }
      ],
      "name": "payee",
      "outputs": [
        {
          "internalType": "address",
          "name": "",
          "type": "address"
        }
      ],
      "stateMutability": "view",
      "type": "function"
    },
    {
      "inputs": [],
      "name": "presaleM",
      "outputs": [
        {
          "internalType": "bool",
          "name": "",
          "type": "bool"
        }
      ],
      "stateMutability": "view",
      "type": "function"
    },
    {
      "inputs": [
        {
          "internalType": "address",
          "name": "account",
          "type": "address"
        },
        {
          "internalType": "uint256",
          "name": "_amount",
          "type": "uint256"
        },
        {
          "internalType": "bytes32[]",
          "name": "_proof",
          "type": "bytes32[]"
        }
      ],
      "name": "presaleMint",
      "outputs": [],
      "stateMutability": "payable",
      "type": "function"
    },
    {
      "inputs": [],
      "name": "publicM",
      "outputs": [
        {
          "internalType": "bool",
          "name": "",
          "type": "bool"
        }
      ],
      "stateMutability": "view",
      "type": "function"
    },
    {
      "inputs": [
        {
          "internalType": "uint256",
          "name": "_amount",
          "type": "uint256"
        }
      ],
      "name": "publicSaleMint",
      "outputs": [],
      "stateMutability": "payable",
      "type": "function"
    },
    {
      "inputs": [
        {
          "internalType": "address payable",
          "name": "account",
          "type": "address"
        }
      ],
      "name": "release",
      "outputs": [],
      "stateMutability": "nonpayable",
      "type": "function"
    },
    {
      "inputs": [
        {
          "internalType": "contract IERC20",
          "name": "token",
          "type": "address"
        },
        {
          "internalType": "address",
          "name": "account",
          "type": "address"
        }
      ],
      "name": "release",
      "outputs": [],
      "stateMutability": "nonpayable",
      "type": "function"
    },
    {
      "inputs": [
        {
          "internalType": "contract IERC20",
          "name": "token",
          "type": "address"
        },
        {
          "internalType": "address",
          "name": "account",
          "type": "address"
        }
      ],
      "name": "released",
      "outputs": [
        {
          "internalType": "uint256",
          "name": "",
          "type": "uint256"
        }
      ],
      "stateMutability": "view",
      "type": "function"
    },
    {
      "inputs": [
        {
          "internalType": "address",
          "name": "account",
          "type": "address"
        }
      ],
      "name": "released",
      "outputs": [
        {
          "internalType": "uint256",
          "name": "",
          "type": "uint256"
        }
      ],
      "stateMutability": "view",
      "type": "function"
    },
    {
      "inputs": [],
      "name": "renounceOwnership",
      "outputs": [],
      "stateMutability": "nonpayable",
      "type": "function"
    },
    {
      "inputs": [],
      "name": "reveal",
      "outputs": [],
      "stateMutability": "nonpayable",
      "type": "function"
    },
    {
      "inputs": [],
      "name": "revealed",
      "outputs": [
        {
          "internalType": "bool",
          "name": "",
          "type": "bool"
        }
      ],
      "stateMutability": "view",
      "type": "function"
    },
    {
      "inputs": [],
      "name": "root",
      "outputs": [
        {
          "internalType": "bytes32",
          "name": "",
          "type": "bytes32"
        }
      ],
      "stateMutability": "view",
      "type": "function"
    },
    {
      "inputs": [
        {
          "internalType": "address",
          "name": "from",
          "type": "address"
        },
        {
          "internalType": "address",
          "name": "to",
          "type": "address"
        },
        {
          "internalType": "uint256",
          "name": "tokenId",
          "type": "uint256"
        }
      ],
      "name": "safeTransferFrom",
      "outputs": [],
      "stateMutability": "nonpayable",
      "type": "function"
    },
    {
      "inputs": [
        {
          "internalType": "address",
          "name": "from",
          "type": "address"
        },
        {
          "internalType": "address",
          "name": "to",
          "type": "address"
        },
        {
          "internalType": "uint256",
          "name": "tokenId",
          "type": "uint256"
        },
        {
          "internalType": "bytes",
          "name": "_data",
          "type": "bytes"
        }
      ],
      "name": "safeTransferFrom",
      "outputs": [],
      "stateMutability": "nonpayable",
      "type": "function"
    },
    {
      "inputs": [
        {
          "internalType": "address",
          "name": "operator",
          "type": "address"
        },
        {
          "internalType": "bool",
          "name": "approved",
          "type": "bool"
        }
      ],
      "name": "setApprovalForAll",
      "outputs": [],
      "stateMutability": "nonpayable",
      "type": "function"
    },
    {
      "inputs": [
        {
          "internalType": "string",
          "name": "_newBaseExtension",
          "type": "string"
        }
      ],
      "name": "setBaseExtension",
      "outputs": [],
      "stateMutability": "nonpayable",
      "type": "function"
    },
    {
      "inputs": [
        {
          "internalType": "string",
          "name": "_tokenBaseURI",
          "type": "string"
        }
      ],
      "name": "setBaseURI",
      "outputs": [],
      "stateMutability": "nonpayable",
      "type": "function"
    },
    {
      "inputs": [
        {
          "internalType": "bytes32",
          "name": "merkleroot",
          "type": "bytes32"
        }
      ],
      "name": "setMerkleRoot",
      "outputs": [],
      "stateMutability": "nonpayable",
      "type": "function"
    },
    {
      "inputs": [
        {
          "internalType": "string",
          "name": "_notRevealedURI",
          "type": "string"
        }
      ],
      "name": "setNotRevealedURI",
      "outputs": [],
      "stateMutability": "nonpayable",
      "type": "function"
    },
    {
      "inputs": [
        {
          "internalType": "address",
          "name": "account",
          "type": "address"
        }
      ],
      "name": "shares",
      "outputs": [
        {
          "internalType": "uint256",
          "name": "",
          "type": "uint256"
        }
      ],
      "stateMutability": "view",
      "type": "function"
    },
    {
      "inputs": [
        {
          "internalType": "bytes4",
          "name": "interfaceId",
          "type": "bytes4"
        }
      ],
      "name": "supportsInterface",
      "outputs": [
        {
          "internalType": "bool",
          "name": "",
          "type": "bool"
        }
      ],
      "stateMutability": "view",
      "type": "function"
    },
    {
      "inputs": [],
      "name": "symbol",
      "outputs": [
        {
          "internalType": "string",
          "name": "",
          "type": "string"
        }
      ],
      "stateMutability": "view",
      "type": "function"
    },
    {
      "inputs": [],
      "name": "togglePause",
      "outputs": [],
      "stateMutability": "nonpayable",
      "type": "function"
    },
    {
      "inputs": [],
      "name": "togglePresale",
      "outputs": [],
      "stateMutability": "nonpayable",
      "type": "function"
    },
    {
      "inputs": [],
      "name": "togglePublicSale",
      "outputs": [],
      "stateMutability": "nonpayable",
      "type": "function"
    },
    {
      "inputs": [
        {
          "internalType": "uint256",
          "name": "tokenId",
          "type": "uint256"
        }
      ],
      "name": "tokenURI",
      "outputs": [
        {
          "internalType": "string",
          "name": "",
          "type": "string"
        }
      ],
      "stateMutability": "view",
      "type": "function"
    },
    {
      "inputs": [
        {
          "internalType": "contract IERC20",
          "name": "token",
          "type": "address"
        }
      ],
      "name": "totalReleased",
      "outputs": [
        {
          "internalType": "uint256",
          "name": "",
          "type": "uint256"
        }
      ],
      "stateMutability": "view",
      "type": "function"
    },
    {
      "inputs": [],
      "name": "totalReleased",
      "outputs": [
        {
          "internalType": "uint256",
          "name": "",
          "type": "uint256"
        }
      ],
      "stateMutability": "view",
      "type": "function"
    },
    {
      "inputs": [],
      "name": "totalShares",
      "outputs": [
        {
          "internalType": "uint256",
          "name": "",
          "type": "uint256"
        }
      ],
      "stateMutability": "view",
      "type": "function"
    },
    {
      "inputs": [],
      "name": "totalSupply",
      "outputs": [
        {
          "internalType": "uint256",
          "name": "",
          "type": "uint256"
        }
      ],
      "stateMutability": "view",
      "type": "function"
    },
    {
      "inputs": [
        {
          "internalType": "address",
          "name": "from",
          "type": "address"
        },
        {
          "internalType": "address",
          "name": "to",
          "type": "address"
        },
        {
          "internalType": "uint256",
          "name": "tokenId",
          "type": "uint256"
        }
      ],
      "name": "transferFrom",
      "outputs": [],
      "stateMutability": "nonpayable",
      "type": "function"
    },
    {
      "inputs": [
        {
          "internalType": "address",
          "name": "newOwner",
          "type": "address"
        }
      ],
      "name": "transferOwnership",
      "outputs": [],
      "stateMutability": "nonpayable",
      "type": "function"
    },
    {
      "stateMutability": "payable",
      "type": "receive"
    }
  ],
  "bytecode": "0x6064601155610100604052604160808181529062003a6a60a03980516200002f916013916020909101906200068d565b5060408051808201909152600580825264173539b7b760d91b60209092019182526200005e916014916200068d565b506015805463ffffffff191690556003601655662386f26fc100006018556040805180820190915260328082526020820152620000a090601a9060026200071c565b5060408051808201909152737ccb2bb8252b8b894495d83a3a4ec4cf99f75ee98152737897ba7da4787875f7a0f3acca4508abca2b5c116020820152620000ec90601b9060026200075f565b50348015620000fa57600080fd5b5060405162003aab38038062003aab8339810160408190526200011d91620007eb565b601b8054806020026020016040519081016040528092919081815260200182805480156200017557602002820191906000526020600020905b81546001600160a01b0316815260019091019060200180831162000156575b5050505050601a805480602002602001604051908101604052809291908181526020018280548015620001c857602002820191906000526020600020905b815481526020019060010190808311620001b3575b5050604080518082018252600a81526921b0ba3a30a632b6bab960b11b6020808301918252835180850190945260038452624c454d60e81b9084015281519195509193506200021c9250600091906200068d565b508051620002329060019060208401906200068d565b5050506200024f62000249620003d460201b60201c565b620003d8565b60016007558051825114620002c65760405162461bcd60e51b815260206004820152603260248201527f5061796d656e7453706c69747465723a2070617965657320616e6420736861726044820152710cae640d8cadccee8d040dad2e6dac2e8c6d60731b60648201526084015b60405180910390fd5b6000825111620003195760405162461bcd60e51b815260206004820152601a60248201527f5061796d656e7453706c69747465723a206e6f207061796565730000000000006044820152606401620002bd565b60005b82518110156200039d57620003888382815181106200034b57634e487b7160e01b600052603260045260246000fd5b60200260200101518383815181106200037457634e487b7160e01b600052603260045260246000fd5b60200260200101516200042a60201b60201c565b80620003948162000938565b9150506200031c565b505050600f829055601080546001600160a01b0319166001600160a01b038316179055620003cb8362000618565b50505062000982565b3390565b600680546001600160a01b038381166001600160a01b0319831681179093556040519116919082907f8be0079c531659141344cd1fd0a4f28419497f9722a3daafe3b4186f6b6457e090600090a35050565b6001600160a01b038216620004975760405162461bcd60e51b815260206004820152602c60248201527f5061796d656e7453706c69747465723a206163636f756e74206973207468652060448201526b7a65726f206164647265737360a01b6064820152608401620002bd565b60008111620004e95760405162461bcd60e51b815260206004820152601d60248201527f5061796d656e7453706c69747465723a207368617265732061726520300000006044820152606401620002bd565b6001600160a01b0382166000908152600a602052604090205415620005655760405162461bcd60e51b815260206004820152602b60248201527f5061796d656e7453706c69747465723a206163636f756e7420616c726561647960448201526a206861732073686172657360a81b6064820152608401620002bd565b600c8054600181019091557fdf6966c971051c3d54ec59162606531493a51404a002842f56009d7e5cf4a8c70180546001600160a01b0319166001600160a01b0384169081179091556000908152600a60205260409020819055600854620005cf908290620008e0565b600855604080516001600160a01b0384168152602081018390527f40c340f65e17194d14ddddb073d3c9f888e3cb52b5aae0c6c7706b4fbc905fac910160405180910390a15050565b6006546001600160a01b03163314620006745760405162461bcd60e51b815260206004820181905260248201527f4f776e61626c653a2063616c6c6572206973206e6f7420746865206f776e65726044820152606401620002bd565b8051620006899060129060208401906200068d565b5050565b8280546200069b90620008fb565b90600052602060002090601f016020900481019282620006bf57600085556200070a565b82601f10620006da57805160ff19168380011785556200070a565b828001600101855582156200070a579182015b828111156200070a578251825591602001919060010190620006ed565b5062000718929150620007b7565b5090565b8280548282559060005260206000209081019282156200070a579160200282015b828111156200070a578251829060ff169055916020019190600101906200073d565b8280548282559060005260206000209081019282156200070a579160200282015b828111156200070a57825182546001600160a01b0319166001600160a01b0390911617825560209092019160019091019062000780565b5b80821115620007185760008155600101620007b8565b80516001600160a01b0381168114620007e657600080fd5b919050565b60008060006060848603121562000800578283fd5b83516001600160401b038082111562000817578485fd5b818601915086601f8301126200082b578485fd5b8151818111156200084057620008406200096c565b604051601f8201601f19908116603f011681019083821181831017156200086b576200086b6200096c565b8160405282815260209350898484870101111562000887578788fd5b8791505b82821015620008aa57848201840151818301850152908301906200088b565b82821115620008bb57878484830101525b8097505050508086015193505050620008d760408501620007ce565b90509250925092565b60008219821115620008f657620008f662000956565b500190565b600181811c908216806200091057607f821691505b602082108114156200093257634e487b7160e01b600052602260045260246000fd5b50919050565b60006000198214156200094f576200094f62000956565b5060010190565b634e487b7160e01b600052601160045260246000fd5b634e487b7160e01b600052604160045260246000fd5b6130d880620009926000396000f3fe6080604052600436106102815760003560e01c80638cc4de191161014f578063c6682862116100c1578063e222c7f91161007a578063e222c7f9146107e9578063e33b7de3146107fe578063e985e9c514610813578063ebf0c71714610833578063f2c4ce1e14610849578063f2fde38b1461086957600080fd5b8063c668286214610712578063c87b56dd14610727578063ce7c2ac214610747578063d5abeb011461077d578063d79779b214610793578063da3ef23f146107c957600080fd5b8063a22cb46511610113578063a22cb46514610674578063a45063c014610694578063a475b5dd146106b5578063b3ab66b0146106ca578063b88d4fde146106dd578063c4ae3168146106fd57600080fd5b80638cc4de19146105cb5780638da5cb5b146105f8578063954dc3e31461061657806395d89b41146106295780639852595c1461063e57600080fd5b8063406072a9116101f35780636352211e116101ac5780636352211e146105215780636c0360eb1461054157806370a0823114610556578063715018a6146105765780637cb647591461058b5780638b83209b146105ab57600080fd5b8063406072a91461044257806342842e0e1461048857806348b75044146104a857806351830227146104c857806355f804b3146104e75780635c975abb1461050757600080fd5b80631798d58b116102455780631798d58b1461039557806318160ddd146103b557806319165587146103d857806323b872dd146103f857806334393743146104185780633a98ef391461042d57600080fd5b806301ffc9a7146102cf57806306fdde0314610304578063081812fc14610326578063081c8c441461035e578063095ea7b31461037357600080fd5b366102ca577f6ef95f06320e7a25a04a175ca677b7052bdd97131872c2192525a629f51be77033604080516001600160a01b0390921682523460208301520160405180910390a1005b600080fd5b3480156102db57600080fd5b506102ef6102ea366004612af1565b610889565b60405190151581526020015b60405180910390f35b34801561031057600080fd5b506103196108db565b6040516102fb9190612cfc565b34801561033257600080fd5b50610346610341366004612ad9565b61096d565b6040516001600160a01b0390911681526020016102fb565b34801561036a57600080fd5b50610319610a07565b34801561037f57600080fd5b5061039361038e366004612a0b565b610a95565b005b3480156103a157600080fd5b506015546102ef9062010000900460ff1681565b3480156103c157600080fd5b506103ca610bab565b6040519081526020016102fb565b3480156103e457600080fd5b506103936103f33660046128cd565b610bbb565b34801561040457600080fd5b50610393610413366004612921565b610ce9565b34801561042457600080fd5b50610393610d1a565b34801561043957600080fd5b506008546103ca565b34801561044e57600080fd5b506103ca61045d366004612b29565b6001600160a01b039182166000908152600e6020908152604080832093909416825291909152205490565b34801561049457600080fd5b506103936104a3366004612921565b610d63565b3480156104b457600080fd5b506103936104c3366004612b29565b610d7e565b3480156104d457600080fd5b506015546102ef90610100900460ff1681565b3480156104f357600080fd5b50610393610502366004612b57565b610f66565b34801561051357600080fd5b506015546102ef9060ff1681565b34801561052d57600080fd5b5061034661053c366004612ad9565b610fa7565b34801561054d57600080fd5b5061031961101e565b34801561056257600080fd5b506103ca6105713660046128cd565b61102b565b34801561058257600080fd5b506103936110b2565b34801561059757600080fd5b506103936105a6366004612ad9565b6110e8565b3480156105b757600080fd5b506103466105c6366004612ad9565b611117565b3480156105d757600080fd5b506103ca6105e63660046128cd565b60176020526000908152604090205481565b34801561060457600080fd5b506006546001600160a01b0316610346565b610393610624366004612a36565b611155565b34801561063557600080fd5b50610319611457565b34801561064a57600080fd5b506103ca6106593660046128cd565b6001600160a01b03166000908152600b602052604090205490565b34801561068057600080fd5b5061039361068f3660046129de565b611466565b3480156106a057600080fd5b506015546102ef906301000000900460ff1681565b3480156106c157600080fd5b50610393611471565b6103936106d8366004612ad9565b6114ac565b3480156106e957600080fd5b506103936106f8366004612961565b611682565b34801561070957600080fd5b506103936116ba565b34801561071e57600080fd5b506103196116f8565b34801561073357600080fd5b50610319610742366004612ad9565b611705565b34801561075357600080fd5b506103ca6107623660046128cd565b6001600160a01b03166000908152600a602052604090205490565b34801561078957600080fd5b506103ca60115481565b34801561079f57600080fd5b506103ca6107ae3660046128cd565b6001600160a01b03166000908152600d602052604090205490565b3480156107d557600080fd5b506103936107e4366004612b57565b611884565b3480156107f557600080fd5b506103936118c1565b34801561080a57600080fd5b506009546103ca565b34801561081f57600080fd5b506102ef61082e3660046128e9565b61190c565b34801561083f57600080fd5b506103ca600f5481565b34801561085557600080fd5b50610393610864366004612b57565b6119dc565b34801561087557600080fd5b506103936108843660046128cd565b611a19565b60006001600160e01b031982166380ac58cd60e01b14806108ba57506001600160e01b03198216635b5e139f60e01b145b806108d557506301ffc9a760e01b6001600160e01b03198316145b92915050565b6060600080546108ea90612fbd565b80601f016020809104026020016040519081016040528092919081815260200182805461091690612fbd565b80156109635780601f1061093857610100808354040283529160200191610963565b820191906000526020600020905b81548152906001019060200180831161094657829003601f168201915b5050505050905090565b6000818152600260205260408120546001600160a01b03166109eb5760405162461bcd60e51b815260206004820152602c60248201527f4552433732313a20617070726f76656420717565727920666f72206e6f6e657860448201526b34b9ba32b73a103a37b5b2b760a11b60648201526084015b60405180910390fd5b506000908152600460205260409020546001600160a01b031690565b60138054610a1490612fbd565b80601f0160208091040260200160405190810160405280929190818152602001828054610a4090612fbd565b8015610a8d5780601f10610a6257610100808354040283529160200191610a8d565b820191906000526020600020905b815481529060010190602001808311610a7057829003601f168201915b505050505081565b6000610aa082610fa7565b9050806001600160a01b0316836001600160a01b03161415610b0e5760405162461bcd60e51b815260206004820152602160248201527f4552433732313a20617070726f76616c20746f2063757272656e74206f776e656044820152603960f91b60648201526084016109e2565b336001600160a01b0382161480610b2a5750610b2a813361190c565b610b9c5760405162461bcd60e51b815260206004820152603860248201527f4552433732313a20617070726f76652063616c6c6572206973206e6f74206f7760448201527f6e6572206e6f7220617070726f76656420666f7220616c6c000000000000000060648201526084016109e2565b610ba68383611ab4565b505050565b6000610bb660195490565b905090565b6001600160a01b0381166000908152600a6020526040902054610bf05760405162461bcd60e51b81526004016109e290612d61565b6000610bfb60095490565b610c059047612f2f565b90506000610c328383610c2d866001600160a01b03166000908152600b602052604090205490565b611b22565b905080610c515760405162461bcd60e51b81526004016109e290612da7565b6001600160a01b0383166000908152600b602052604081208054839290610c79908490612f2f565b925050819055508060096000828254610c929190612f2f565b90915550610ca290508382611b60565b604080516001600160a01b0385168152602081018390527fdf20fd1e76bc69d672e4814fafb2c449bba3a5369d8359adf9e05e6fde87b056910160405180910390a1505050565b610cf33382611c79565b610d0f5760405162461bcd60e51b81526004016109e290612ede565b610ba6838383611d4f565b6006546001600160a01b03163314610d445760405162461bcd60e51b81526004016109e290612df2565b6015805462ff0000198116620100009182900460ff1615909102179055565b610ba683838360405180602001604052806000815250611682565b6001600160a01b0381166000908152600a6020526040902054610db35760405162461bcd60e51b81526004016109e290612d61565b6001600160a01b0382166000908152600d60205260408120546040516370a0823160e01b81523060048201526001600160a01b038516906370a082319060240160206040518083038186803b158015610e0b57600080fd5b505afa158015610e1f573d6000803e3d6000fd5b505050506040513d601f19601f82011682018060405250810190610e439190612b9d565b610e4d9190612f2f565b90506000610e868383610c2d87876001600160a01b039182166000908152600e6020908152604080832093909416825291909152205490565b905080610ea55760405162461bcd60e51b81526004016109e290612da7565b6001600160a01b038085166000908152600e6020908152604080832093871683529290529081208054839290610edc908490612f2f565b90915550506001600160a01b0384166000908152600d602052604081208054839290610f09908490612f2f565b90915550610f1a9050848483611eeb565b604080516001600160a01b038581168252602082018490528616917f3be5b7a71e84ed12875d241991c70855ac5817d847039e17a9d895c1ceb0f18a910160405180910390a250505050565b6006546001600160a01b03163314610f905760405162461bcd60e51b81526004016109e290612df2565b8051610fa39060129060208401906127be565b5050565b6000818152600260205260408120546001600160a01b0316806108d55760405162461bcd60e51b815260206004820152602960248201527f4552433732313a206f776e657220717565727920666f72206e6f6e657869737460448201526832b73a103a37b5b2b760b91b60648201526084016109e2565b60128054610a1490612fbd565b60006001600160a01b0382166110965760405162461bcd60e51b815260206004820152602a60248201527f4552433732313a2062616c616e636520717565727920666f7220746865207a65604482015269726f206164647265737360b01b60648201526084016109e2565b506001600160a01b031660009081526003602052604090205490565b6006546001600160a01b031633146110dc5760405162461bcd60e51b81526004016109e290612df2565b6110e66000611f3d565b565b6006546001600160a01b031633146111125760405162461bcd60e51b81526004016109e290612df2565b600f55565b6000600c828154811061113a57634e487b7160e01b600052603260045260246000fd5b6000918252602090912001546001600160a01b031692915050565b81816111cc82828080602002602001604051908101604052809392919081815260200183836020028082843760009201919091525050600f546040516bffffffffffffffffffffffff193360601b166020820152909250603401905060405160208183030381529060405280519060200120611f8f565b15156001146111ed5760405162461bcd60e51b81526004016109e290612eb2565b33321461120c5760405162461bcd60e51b81526004016109e290612eb2565b336001600160a01b038716146112645760405162461bcd60e51b815260206004820152601760248201527f43617474614c656d75723a204e6f7420616c6c6f77656400000000000000000060448201526064016109e2565b60155462010000900460ff166112bc5760405162461bcd60e51b815260206004820152601a60248201527f43617474614c656d75723a2050726573616c65206973204f464600000000000060448201526064016109e2565b60155460ff161561130f5760405162461bcd60e51b815260206004820152601e60248201527f43617474614c656d75723a20436f6e747261637420697320706175736564000060448201526064016109e2565b6016548511156113315760405162461bcd60e51b81526004016109e290612e27565b6016543360009081526017602052604090205461134f908790612f2f565b111561136d5760405162461bcd60e51b81526004016109e290612e27565b600061137860195490565b6011549091506113888783612f2f565b11156113d65760405162461bcd60e51b815260206004820152601f60248201527f43617474614c656d75723a206d617820737570706c792065786365656465640060448201526064016109e2565b34866018546113e59190612f5b565b11156114035760405162461bcd60e51b81526004016109e290612e70565b3360009081526017602052604081208054889290611422908490612f2f565b90915550600090505b8681101561144d5761143b611fa5565b8061144581612ff8565b91505061142b565b5050505050505050565b6060600180546108ea90612fbd565b610fa333838361202a565b6006546001600160a01b0316331461149b5760405162461bcd60e51b81526004016109e290612df2565b6015805461ff001916610100179055565b3332146114cb5760405162461bcd60e51b81526004016109e290612eb2565b6015546301000000900460ff166115245760405162461bcd60e51b815260206004820152601d60248201527f43617474614c656d75723a205075626c696353616c65206973204f464600000060448201526064016109e2565b60155460ff16156115775760405162461bcd60e51b815260206004820152601e60248201527f43617474614c656d75723a20436f6e747261637420697320706175736564000060448201526064016109e2565b600081116115c75760405162461bcd60e51b815260206004820152601760248201527f43617474614c656d75723a207a65726f20616d6f756e7400000000000000000060448201526064016109e2565b60006115d260195490565b6011549091506115e28383612f2f565b11156116305760405162461bcd60e51b815260206004820152601f60248201527f43617474614c656d75723a204d617820737570706c792065786365656465640060448201526064016109e2565b348260185461163f9190612f5b565b111561165d5760405162461bcd60e51b81526004016109e290612e70565b60005b82811015610ba657611670611fa5565b8061167a81612ff8565b915050611660565b61168c3383611c79565b6116a85760405162461bcd60e51b81526004016109e290612ede565b6116b4848484846120f9565b50505050565b6006546001600160a01b031633146116e45760405162461bcd60e51b81526004016109e290612df2565b6015805460ff19811660ff90911615179055565b60148054610a1490612fbd565b6000818152600260205260409020546060906001600160a01b03166117845760405162461bcd60e51b815260206004820152602f60248201527f4552433732314d657461646174613a2055524920717565727920666f72206e6f60448201526e3732bc34b9ba32b73a103a37b5b2b760891b60648201526084016109e2565b601554610100900460ff1661182557601380546117a090612fbd565b80601f01602080910402602001604051908101604052809291908181526020018280546117cc90612fbd565b80156118195780601f106117ee57610100808354040283529160200191611819565b820191906000526020600020905b8154815290600101906020018083116117fc57829003601f168201915b50505050509050919050565b600061182f61212c565b9050600081511161184f576040518060200160405280600081525061187d565b806118598461213b565b601460405160200161186d93929190612bfd565b6040516020818303038152906040525b9392505050565b6006546001600160a01b031633146118ae5760405162461bcd60e51b81526004016109e290612df2565b8051610fa39060149060208401906127be565b6006546001600160a01b031633146118eb5760405162461bcd60e51b81526004016109e290612df2565b6015805463ff00000019811663010000009182900460ff1615909102179055565b60105460405163c455279160e01b81526001600160a01b03848116600483015260009281169190841690829063c45527919060240160206040518083038186803b15801561195957600080fd5b505afa15801561196d573d6000803e3d6000fd5b505050506040513d601f19601f820116820180604052508101906119919190612b3b565b6001600160a01b031614156119aa5760019150506108d5565b6001600160a01b0380851660009081526005602090815260408083209387168352929052205460ff165b949350505050565b6006546001600160a01b03163314611a065760405162461bcd60e51b81526004016109e290612df2565b8051610fa39060139060208401906127be565b6006546001600160a01b03163314611a435760405162461bcd60e51b81526004016109e290612df2565b6001600160a01b038116611aa85760405162461bcd60e51b815260206004820152602660248201527f4f776e61626c653a206e6577206f776e657220697320746865207a65726f206160448201526564647265737360d01b60648201526084016109e2565b611ab181611f3d565b50565b600081815260046020526040902080546001600160a01b0319166001600160a01b0384169081179091558190611ae982610fa7565b6001600160a01b03167f8c5be1e5ebec7d5bd14f71427d1e84f3dd0314c0f7b2291e5b200ac8c7c3b92560405160405180910390a45050565b6008546001600160a01b0384166000908152600a602052604081205490918391611b4c9086612f5b565b611b569190612f47565b6119d49190612f7a565b80471015611bb05760405162461bcd60e51b815260206004820152601d60248201527f416464726573733a20696e73756666696369656e742062616c616e636500000060448201526064016109e2565b6000826001600160a01b03168260405160006040518083038185875af1925050503d8060008114611bfd576040519150601f19603f3d011682016040523d82523d6000602084013e611c02565b606091505b5050905080610ba65760405162461bcd60e51b815260206004820152603a60248201527f416464726573733a20756e61626c6520746f2073656e642076616c75652c207260448201527f6563697069656e74206d6179206861766520726576657274656400000000000060648201526084016109e2565b6000818152600260205260408120546001600160a01b0316611cf25760405162461bcd60e51b815260206004820152602c60248201527f4552433732313a206f70657261746f7220717565727920666f72206e6f6e657860448201526b34b9ba32b73a103a37b5b2b760a11b60648201526084016109e2565b6000611cfd83610fa7565b9050806001600160a01b0316846001600160a01b03161480611d245750611d24818561190c565b806119d45750836001600160a01b0316611d3d8461096d565b6001600160a01b031614949350505050565b826001600160a01b0316611d6282610fa7565b6001600160a01b031614611dc65760405162461bcd60e51b815260206004820152602560248201527f4552433732313a207472616e736665722066726f6d20696e636f72726563742060448201526437bbb732b960d91b60648201526084016109e2565b6001600160a01b038216611e285760405162461bcd60e51b8152602060048201526024808201527f4552433732313a207472616e7366657220746f20746865207a65726f206164646044820152637265737360e01b60648201526084016109e2565b611e33600082611ab4565b6001600160a01b0383166000908152600360205260408120805460019290611e5c908490612f7a565b90915550506001600160a01b0382166000908152600360205260408120805460019290611e8a908490612f2f565b909155505060008181526002602052604080822080546001600160a01b0319166001600160a01b0386811691821790925591518493918716917fddf252ad1be2c89b69c2b068fc378daa952ba7f163c4a11628f55a4df523b3ef91a4505050565b604080516001600160a01b038416602482015260448082018490528251808303909101815260649091019091526020810180516001600160e01b031663a9059cbb60e01b179052610ba6908490612255565b600680546001600160a01b038381166001600160a01b0319831681179093556040519116919082907f8be0079c531659141344cd1fd0a4f28419497f9722a3daafe3b4186f6b6457e090600090a35050565b600082611f9c8584612327565b14949350505050565b60026007541415611ff85760405162461bcd60e51b815260206004820152601f60248201527f5265656e7472616e637947756172643a207265656e7472616e742063616c6c0060448201526064016109e2565b600260075561200b601980546001019055565b600061201660195490565b905061202233826123a9565b506001600755565b816001600160a01b0316836001600160a01b0316141561208c5760405162461bcd60e51b815260206004820152601960248201527f4552433732313a20617070726f766520746f2063616c6c65720000000000000060448201526064016109e2565b6001600160a01b03838116600081815260056020908152604080832094871680845294825291829020805460ff191686151590811790915591519182527f17307eab39ab6107e8899845ad3d59bd9653f200f220920489ca2b5937696c31910160405180910390a3505050565b612104848484611d4f565b612110848484846123c3565b6116b45760405162461bcd60e51b81526004016109e290612d0f565b6060601280546108ea90612fbd565b60608161215f5750506040805180820190915260018152600360fc1b602082015290565b8160005b8115612189578061217381612ff8565b91506121829050600a83612f47565b9150612163565b60008167ffffffffffffffff8111156121b257634e487b7160e01b600052604160045260246000fd5b6040519080825280601f01601f1916602001820160405280156121dc576020820181803683370190505b5090505b84156119d4576121f1600183612f7a565b91506121fe600a86613013565b612209906030612f2f565b60f81b81838151811061222c57634e487b7160e01b600052603260045260246000fd5b60200101906001600160f81b031916908160001a90535061224e600a86612f47565b94506121e0565b60006122aa826040518060400160405280602081526020017f5361666545524332303a206c6f772d6c6576656c2063616c6c206661696c6564815250856001600160a01b03166124d09092919063ffffffff16565b805190915015610ba657808060200190518101906122c89190612abd565b610ba65760405162461bcd60e51b815260206004820152602a60248201527f5361666545524332303a204552433230206f7065726174696f6e20646964206e6044820152691bdd081cdd58d8d9595960b21b60648201526084016109e2565b600081815b84518110156123a157600085828151811061235757634e487b7160e01b600052603260045260246000fd5b6020026020010151905080831161237d576000838152602082905260409020925061238e565b600081815260208490526040902092505b508061239981612ff8565b91505061232c565b509392505050565b610fa38282604051806020016040528060008152506124df565b60006001600160a01b0384163b156124c557604051630a85bd0160e11b81526001600160a01b0385169063150b7a0290612407903390899088908890600401612cbf565b602060405180830381600087803b15801561242157600080fd5b505af1925050508015612451575060408051601f3d908101601f1916820190925261244e91810190612b0d565b60015b6124ab573d80801561247f576040519150601f19603f3d011682016040523d82523d6000602084013e612484565b606091505b5080516124a35760405162461bcd60e51b81526004016109e290612d0f565b805181602001fd5b6001600160e01b031916630a85bd0160e11b1490506119d4565b506001949350505050565b60606119d48484600085612512565b6124e98383612643565b6124f660008484846123c3565b610ba65760405162461bcd60e51b81526004016109e290612d0f565b6060824710156125735760405162461bcd60e51b815260206004820152602660248201527f416464726573733a20696e73756666696369656e742062616c616e636520666f6044820152651c8818d85b1b60d21b60648201526084016109e2565b6001600160a01b0385163b6125ca5760405162461bcd60e51b815260206004820152601d60248201527f416464726573733a2063616c6c20746f206e6f6e2d636f6e747261637400000060448201526064016109e2565b600080866001600160a01b031685876040516125e69190612be1565b60006040518083038185875af1925050503d8060008114612623576040519150601f19603f3d011682016040523d82523d6000602084013e612628565b606091505b5091509150612638828286612785565b979650505050505050565b6001600160a01b0382166126995760405162461bcd60e51b815260206004820181905260248201527f4552433732313a206d696e7420746f20746865207a65726f206164647265737360448201526064016109e2565b6000818152600260205260409020546001600160a01b0316156126fe5760405162461bcd60e51b815260206004820152601c60248201527f4552433732313a20746f6b656e20616c7265616479206d696e7465640000000060448201526064016109e2565b6001600160a01b0382166000908152600360205260408120805460019290612727908490612f2f565b909155505060008181526002602052604080822080546001600160a01b0319166001600160a01b03861690811790915590518392907fddf252ad1be2c89b69c2b068fc378daa952ba7f163c4a11628f55a4df523b3ef908290a45050565b6060831561279457508161187d565b8251156127a45782518084602001fd5b8160405162461bcd60e51b81526004016109e29190612cfc565b8280546127ca90612fbd565b90600052602060002090601f0160209004810192826127ec5760008555612832565b82601f1061280557805160ff1916838001178555612832565b82800160010185558215612832579182015b82811115612832578251825591602001919060010190612817565b5061283e929150612842565b5090565b5b8082111561283e5760008155600101612843565b600067ffffffffffffffff8084111561287257612872613053565b604051601f8501601f19908116603f0116810190828211818310171561289a5761289a613053565b816040528093508581528686860111156128b357600080fd5b858560208301376000602087830101525050509392505050565b6000602082840312156128de578081fd5b813561187d81613069565b600080604083850312156128fb578081fd5b823561290681613069565b9150602083013561291681613069565b809150509250929050565b600080600060608486031215612935578081fd5b833561294081613069565b9250602084013561295081613069565b929592945050506040919091013590565b60008060008060808587031215612976578081fd5b843561298181613069565b9350602085013561299181613069565b925060408501359150606085013567ffffffffffffffff8111156129b3578182fd5b8501601f810187136129c3578182fd5b6129d287823560208401612857565b91505092959194509250565b600080604083850312156129f0578182fd5b82356129fb81613069565b915060208301356129168161307e565b60008060408385031215612a1d578182fd5b8235612a2881613069565b946020939093013593505050565b60008060008060608587031215612a4b578384fd5b8435612a5681613069565b935060208501359250604085013567ffffffffffffffff80821115612a79578384fd5b818701915087601f830112612a8c578384fd5b813581811115612a9a578485fd5b8860208260051b8501011115612aae578485fd5b95989497505060200194505050565b600060208284031215612ace578081fd5b815161187d8161307e565b600060208284031215612aea578081fd5b5035919050565b600060208284031215612b02578081fd5b813561187d8161308c565b600060208284031215612b1e578081fd5b815161187d8161308c565b600080604083850312156128fb578182fd5b600060208284031215612b4c578081fd5b815161187d81613069565b600060208284031215612b68578081fd5b813567ffffffffffffffff811115612b7e578182fd5b8201601f81018413612b8e578182fd5b6119d484823560208401612857565b600060208284031215612bae578081fd5b5051919050565b60008151808452612bcd816020860160208601612f91565b601f01601f19169290920160200192915050565b60008251612bf3818460208701612f91565b9190910192915050565b600084516020612c108285838a01612f91565b855191840191612c238184848a01612f91565b85549201918390600181811c9080831680612c3f57607f831692505b858310811415612c5d57634e487b7160e01b88526022600452602488fd5b808015612c715760018114612c8257612cae565b60ff19851688528388019550612cae565b60008b815260209020895b85811015612ca65781548a820152908401908801612c8d565b505083880195505b50939b9a5050505050505050505050565b6001600160a01b0385811682528416602082015260408101839052608060608201819052600090612cf290830184612bb5565b9695505050505050565b60208152600061187d6020830184612bb5565b60208082526032908201527f4552433732313a207472616e7366657220746f206e6f6e20455243373231526560408201527131b2b4bb32b91034b6b83632b6b2b73a32b960711b606082015260800190565b60208082526026908201527f5061796d656e7453706c69747465723a206163636f756e7420686173206e6f2060408201526573686172657360d01b606082015260800190565b6020808252602b908201527f5061796d656e7453706c69747465723a206163636f756e74206973206e6f742060408201526a191d59481c185e5b595b9d60aa1b606082015260800190565b6020808252818101527f4f776e61626c653a2063616c6c6572206973206e6f7420746865206f776e6572604082015260600190565b60208082526029908201527f43617474614c656d75723a20596f752063616e2774206d696e7420736f206d75604082015268636820746f6b656e7360b81b606082015260800190565b60208082526022908201527f43617474614c656d75723a204e6f7420656e6f756768206574686572732073656040820152611b9d60f21b606082015260800190565b6020808252601290820152712737ba1030b63637bbb2b21037b934b3b4b760711b604082015260600190565b60208082526031908201527f4552433732313a207472616e736665722063616c6c6572206973206e6f74206f6040820152701ddb995c881b9bdc88185c1c1c9bdd9959607a1b606082015260800190565b60008219821115612f4257612f42613027565b500190565b600082612f5657612f5661303d565b500490565b6000816000190483118215151615612f7557612f75613027565b500290565b600082821015612f8c57612f8c613027565b500390565b60005b83811015612fac578181015183820152602001612f94565b838111156116b45750506000910152565b600181811c90821680612fd157607f821691505b60208210811415612ff257634e487b7160e01b600052602260045260246000fd5b50919050565b600060001982141561300c5761300c613027565b5060010190565b6000826130225761302261303d565b500690565b634e487b7160e01b600052601160045260246000fd5b634e487b7160e01b600052601260045260246000fd5b634e487b7160e01b600052604160045260246000fd5b6001600160a01b0381168114611ab157600080fd5b8015158114611ab157600080fd5b6001600160e01b031981168114611ab157600080fdfea264697066735822122020d7ae425d9929604aae195fa89f6b0e419963d40d84184ecf3ebf49b420019d64736f6c63430008040033697066733a2f2f516d6248666466336b564c324c7a5a6b395637637431687a745361614c42617761793869795474756b50786276382f68696464656e2e6a736f6e",
  "linkReferences": {},
  "deployedLinkReferences": {}
}